import { Transport } from '@coolwallet/core';
import { createTransport } from '@coolwallet/transport-jre-http';
import * as utils from 'web3-utils';
import EVM, { CHAIN } from '../src';
import { initialize } from './utils/se';
import { TYPED_DATA_FIXTURE_0 } from './fixtures/typedData';
import type {
  EIP1559Transaction,
  EIP712MessageTransaction,
  EIP712TypedDataTransaction,
  LegacyTransaction,
} from '../src/transaction/types';

type PromiseValue<T> = T extends Promise<infer V> ? V : never;

const coinCronos = new EVM(CHAIN.CRONOS);

const mnemonic =
  'casino wait analyst employ same material anxiety gentle escape steel blush sheriff economy grit approve';

describe('Test EVM SDK', () => {
  let props: PromiseValue<ReturnType<typeof initialize>>;
  let transport: Transport;

  beforeAll(async () => {
    transport = (await createTransport())!;
    props = await initialize(transport, mnemonic);
  });

  it('Test Get Address', async () => {
    const address = await coinCronos.getAddress(transport, props.appPrivateKey, props.appId, 0);
    expect(address).toBe('0x96Cd30C0C545f2656Ba40b00E0263A934532fa25');
  });

  it('Test Sign Transaction', async () => {
    const client: LegacyTransaction = {
      transaction: {
        nonce: '0x0',
        gasPrice: '0x91494C600',
        gasLimit: '0x5208',
        to: '0x8A1628c2397F6cA75579A45E81EE3e17DF19720e',
        value: utils.toHex(utils.toWei('0.00001', 'ether')),
        data: '',
      },
      transport,
      appPrivateKey: props.appPrivateKey,
      appId: props.appId,
      addressIndex: 0,
    };

    const signature = await coinCronos.signTransaction(client);
    expect(signature).toEqual(
      `0xf86a8085091494c600825208948a1628c2397f6ca75579a45e81ee3e17df19720e8609184e72a0008056a0a0f81837509583910233faee56e411fa2936eb56e1a95860d4ebc6d186fb191ea050546403e6ccb6b6ea9c41f999cc3253be758640506bacc8d1ca232653cb94d1`
    );
  });

  it('Test Sign ERC20 Transaction', async () => {
    const token = CHAIN.CRONOS.tokens.USDT;
    const scale = 10 ** +token.unit;
    const tokenAmount = 0.00001;
    const amount = (tokenAmount * scale).toString(16);
    const erc20Data = `0xa9059cbb${token.contractAddress.slice(2).padStart(64, '0')}${amount.padStart(64, '0')}`;
    const client: LegacyTransaction = {
      transaction: {
        nonce: '0x0',
        gasPrice: '0x91494C600',
        gasLimit: '0x5208',
        to: token.contractAddress,
        value: '0x0',
        data: erc20Data,
      },
      transport,
      appPrivateKey: props.appPrivateKey,
      appId: props.appId,
      addressIndex: 0,
    };

    const signature = await coinCronos.signTransaction(client);
    expect(signature).toEqual(
      `0xf8a98085091494c6008252089466e428c3f67a68878562e79a0234c1f83c20877080b844a9059cbb00000000000000000000000066e428c3f67a68878562e79a0234c1f83c208770000000000000000000000000000000000000000000000000000000000000000a56a014459e7c922b6df1a0d79e084f7da79ad3053c590ad37b1ae77408d2efffc728a042bff32ccbd266584e742b7970673066a943203be5a15c97f0eea0f7467e9c38`
    );
  });

  it('Test Sign Smart Contract Transaction', async () => {
    const client: LegacyTransaction = {
      transaction: {
        nonce: '0x0',
        gasPrice: '0x91494C600',
        gasLimit: '0x5208',
        to: '0x8A1628c2397F6cA75579A45E81EE3e17DF19720e',
        value: utils.toHex(utils.toWei('0.00001', 'ether')),
        data: '0x96Cd30C0C545f2656Ba40b00E0263A934532fa25',
      },
      transport,
      appPrivateKey: props.appPrivateKey,
      appId: props.appId,
      addressIndex: 0,
    };

    const signature = await coinCronos.signTransaction(client);
    expect(signature).toEqual(
      `0xf87e8085091494c600825208948a1628c2397f6ca75579a45e81ee3e17df19720e8609184e72a0009496cd30c0c545f2656ba40b00e0263a934532fa2556a03bca102c19787f7bfcb354ba2f7f46adc275c9332a93b96b068a96fbc59d6174a04faae153538e8569c1d9003f1ae18b5af44e3d9939f88f28604b1b9cbe3ae72c`
    );
  });

  it('Test Sign Smart Contract Segment Transaction', async () => {
    const client: LegacyTransaction = {
      transaction: {
        nonce: '0x0',
        gasPrice: '0x91494C600',
        gasLimit: '0x5208',
        to: '0x8A1628c2397F6cA75579A45E81EE3e17DF19720e',
        value: utils.toHex(utils.toWei('0.00001', 'ether')),
        data: '0x96Cd30C0C545f2656Ba40b00E0263A934532fa25'.padEnd(16000, '0'),
      },
      transport,
      appPrivateKey: props.appPrivateKey,
      appId: props.appId,
      addressIndex: 0,
    };

    const signature = await coinCronos.signTransaction(client);
    expect(signature).toEqual(
      `0xf91fab8085091494c600825208948a1628c2397f6ca75579a45e81ee3e17df19720e8609184e72a000b91f3f96cd30c0c545f2656ba40b00e0263a934532fa25000000000000000000000000000000000000000000000000000000000000000000000000000000000000000000000000000000000000000000000000000000000000000000000000000000000000000000000000000000000000000000000000000000000000000000000000000000000000000000000000000000000000000000000000000000000000000000000000000000000000000000000000000000000000000000000000000000000000000000000000000000000000000000000000000000000000000000000000000000000000000000000000000000000000000000000000000000000000000000000000000000000000000000000000000000000000000000000000000000000000000000000000000000000000000000000000000000000000000000000000000000000000000000000000000000000000000000000000000000000000000000000000000000000000000000000000000000000000000000000000000000000000000000000000000000000000000000000000000000000000000000000000000000000000000000000000000000000000000000000000000000000000000000000000000000000000000000000000000000000000000000000000000000000000000000000000000000000000000000000000000000000000000000000000000000000000000000000000000000000000000000000000000000000000000000000000000000000000000000000000000000000000000000000000000000000000000000000000000000000000000000000000000000000000000000000000000000000000000000000000000000000000000000000000000000000000000000000000000000000000000000000000000000000000000000000000000000000000000000000000000000000000000000000000000000000000000000000000000000000000000000000000000000000000000000000000000000000000000000000000000000000000000000000000000000000000000000000000000000000000000000000000000000000000000000000000000000000000000000000000000000000000000000000000000000000000000000000000000000000000000000000000000000000000000000000000000000000000000000000000000000000000000000000000000000000000000000000000000000000000000000000000000000000000000000000000000000000000000000000000000000000000000000000000000000000000000000000000000000000000000000000000000000000000000000000000000000000000000000000000000000000000000000000000000000000000000000000000000000000000000000000000000000000000000000000000000000000000000000000000000000000000000000000000000000000000000000000000000000000000000000000000000000000000000000000000000000000000000000000000000000000000000000000000000000000000000000000000000000000000000000000000000000000000000000000000000000000000000000000000000000000000000000000000000000000000000000000000000000000000000000000000000000000000000000000000000000000000000000000000000000000000000000000000000000000000000000000000000000000000000000000000000000000000000000000000000000000000000000000000000000000000000000000000000000000000000000000000000000000000000000000000000000000000000000000000000000000000000000000000000000000000000000000000000000000000000000000000000000000000000000000000000000000000000000000000000000000000000000000000000000000000000000000000000000000000000000000000000000000000000000000000000000000000000000000000000000000000000000000000000000000000000000000000000000000000000000000000000000000000000000000000000000000000000000000000000000000000000000000000000000000000000000000000000000000000000000000000000000000000000000000000000000000000000000000000000000000000000000000000000000000000000000000000000000000000000000000000000000000000000000000000000000000000000000000000000000000000000000000000000000000000000000000000000000000000000000000000000000000000000000000000000000000000000000000000000000000000000000000000000000000000000000000000000000000000000000000000000000000000000000000000000000000000000000000000000000000000000000000000000000000000000000000000000000000000000000000000000000000000000000000000000000000000000000000000000000000000000000000000000000000000000000000000000000000000000000000000000000000000000000000000000000000000000000000000000000000000000000000000000000000000000000000000000000000000000000000000000000000000000000000000000000000000000000000000000000000000000000000000000000000000000000000000000000000000000000000000000000000000000000000000000000000000000000000000000000000000000000000000000000000000000000000000000000000000000000000000000000000000000000000000000000000000000000000000000000000000000000000000000000000000000000000000000000000000000000000000000000000000000000000000000000000000000000000000000000000000000000000000000000000000000000000000000000000000000000000000000000000000000000000000000000000000000000000000000000000000000000000000000000000000000000000000000000000000000000000000000000000000000000000000000000000000000000000000000000000000000000000000000000000000000000000000000000000000000000000000000000000000000000000000000000000000000000000000000000000000000000000000000000000000000000000000000000000000000000000000000000000000000000000000000000000000000000000000000000000000000000000000000000000000000000000000000000000000000000000000000000000000000000000000000000000000000000000000000000000000000000000000000000000000000000000000000000000000000000000000000000000000000000000000000000000000000000000000000000000000000000000000000000000000000000000000000000000000000000000000000000000000000000000000000000000000000000000000000000000000000000000000000000000000000000000000000000000000000000000000000000000000000000000000000000000000000000000000000000000000000000000000000000000000000000000000000000000000000000000000000000000000000000000000000000000000000000000000000000000000000000000000000000000000000000000000000000000000000000000000000000000000000000000000000000000000000000000000000000000000000000000000000000000000000000000000000000000000000000000000000000000000000000000000000000000000000000000000000000000000000000000000000000000000000000000000000000000000000000000000000000000000000000000000000000000000000000000000000000000000000000000000000000000000000000000000000000000000000000000000000000000000000000000000000000000000000000000000000000000000000000000000000000000000000000000000000000000000000000000000000000000000000000000000000000000000000000000000000000000000000000000000000000000000000000000000000000000000000000000000000000000000000000000000000000000000000000000000000000000000000000000000000000000000000000000000000000000000000000000000000000000000000000000000000000000000000000000000000000000000000000000000000000000000000000000000000000000000000000000000000000000000000000000000000000000000000000000000000000000000000000000000000000000000000000000000000000000000000000000000000000000000000000000000000000000000000000000000000000000000000000000000000000000000000000000000000000000000000000000000000000000000000000000000000000000000000000000000000000000000000000000000000000000000000000000000000000000000000000000000000000000000000000000000000000000000000000000000000000000000000000000000000000000000000000000000000000000000000000000000000000000000000000000000000000000000000000000000000000000000000000000000000000000000000000000000000000000000000000000000000000000000000000000000000000000000000000000000000000000000000000000000000000000000000000000000000000000000000000000000000000000000000000000000000000000000000000000000000000000000000000000000000000000000000000000000000000000000000000000000000000000000000000000000000000000000000000000000000000000000000000000000000000000000000000000000000000000000000000000000000000000000000000000000000000000000000000000000000000000000000000000000000000000000000000000000000000000000000000000000000000000000000000000000000000000000000000000000000000000000000000000000000000000000000000000000000000000000000000000000000000000000000000000000000000000000000000000000000000000000000000000000000000000000000000000000000000000000000000000000000000000000000000000000000000000000000000000000000000000000000000000000000000000000000000000000000000000000000000000000000000000000000000000000000000000000000000000000000000000000000000000000000000000000000000000000000000000000000000000000000000000000000000000000000000000000000000000000000000000000000000000000000000000000000000000000000000000000000000000000000000000000000000000000000000000000000000000000000000000000000000000000000000000000000000000000000000000000000000000000000000000000000000000000000000000000000000000000000000000000000000000000000000000000000000000000000000000000000000000000000000000000000000000000000000000000000000000000000000000000000000000000000000000000000000000000000000000000000000000000000000000000000000000000000000000000000000000000000000000000000000000000000000000000000000000000000000000000000000000000000000000000000000000000000000000000000000000000000000000000000000000000000000000000000000000000000000000000000000000000000000000000000000000000000000000000000000000000000000000000000000000000000000000000000000000000000000000000000000000000000000000000000000000000000000000000000000000000000000000000000000000000000000000000000000000000000000000000000000000000000000000000000000000000000000000000000000000000000000000000000000000000000000000000000000000000000000000000000000000000000000000000000000000000000000000000000000000000000000000000000000000000000000000000000000000000000000000000000000000000000000000000000000000000000000000000000000000000000000000000000000000000000000000000000000000000000000000000000000000000000000000000000000000000000000000000000000000000000000000000000000000000000000000000000000000000000000000000000000000000000000000000000000000000000000000000000000000000000000000000000000000000000000000000000000000000000000000000000000000000000000000000000000000000000000000000000000000000000000000000000000000000000000000000000000000000000000000000000000000000000000000000000000000000000000000000000000000000000000000000000000000000000000000000000000000000000000000000000000000000000000000000000000000000000000000000000000000000000000000000000000000000000000000000000000000000000000000000000000000000000000000000000000000000000000000000000000000000000000000000000000000000000000000000000000000000000000000000000000000000000000000000000000000000000000000000000000000000000000000000000000000000000000000000000000000000000000000000000000000000000000000000000000000000000000000000000000000000000000000000000000000000000000000000000000000000000000000000000000000000000000000000000000000000000000000000000000000000000000000000000000000000000000000000000000000000000000000000000000000000000000000000000000000000000000000000000000000000000000000000000000000000000000000000000000000000000000000000000000000000000000000000000000000000000000000000000000000000000000000000000000000000000000000000000000000000000000000000000000000000000000000000000000000000000000000000000000000000000000000000000000000000000000000000000000000000000000000000000000000000000000000000000000000000000000000000000000000000000000000000000000000000000000000000000000000000000000000000000000000000000000000000000000000000000000000000000000000000000000000000000000000000000000000000000000000000000000000000000000000000000000000000000000000000000000000000000000000000000000000000000000000000000000000000000000000000000000000000000000000000000000000000000000000000000000000000000000000000000000000000000000000000000000000000000000000000000000000000000000000000000000000000000000000000000000000000000000000000000000000000000000000000000000000000000000000000000000000000000000000000000000000000000000000000000000000000000000000000000000000000000000000000000000000000000000000000000000000000000000000000000000000000000000000000000000000000000000000000000000000000000000000000000000000000000000000000000000000000000000000000000000000000000000000000000000000000000000000000000000000000000000000000000000000000000000000000000000000000000000000000000000000000000000000000000000000000000000000000000000000000000000000000000000000000000000000000000000000000000000000000000000000000000000000000000000000000000000000000000000000000000000000000000000000000000000000000000000000000000000000000000000000000000000000000000000000000000000000000000000000000000000000000000000000000000000000000000000000000000000000000000000000000000000000000000000000000000000000000000000000000000000000000000000000000000000000000000000000000000000000000000000000000000000000000000000000000000000000000000000000000000000000000000000000000000000000000000000000000000000000000000000000000000000000000000000000000000000000000000000000000000000000000000000000000000000000000000000000000000000000000000000000000000000000000000000000000000000000000000000000000000000000000000000000000000000000000000000000000000000000000000000000000000000000000000000000000000000000000000000000000000000000000000000000000000000000000000000000000000000000000000000000000000000000000000000000000000000000000000000000000000000000000000000000000000000000000000000000000000000000000000000000000000000000000000000000000000000000000000000000000000000000000000000000000000000000000000000000000000000000000000000000000000000000000000000000000000000000000000000000000000000000000000000000000000000000000000000000000000000000000000000000000000000000000000000000000000000000000000000000000000000000000000000000000000000000000000000000000000000000000000000000000000000000000000000000000000000000000000000000000000000000000000000000000000000000000000000000000000000000000000000000000000000000000000000000000000000000000000000000000000000000000000000000000000000000000000000000000000000000000000000000000000000000000000000000000000000000000000000000000000000000000000000000000000000000000000000000000000000000000000000000000000000000000000000000000000000000000000000000000000000000000000000000000000000000000000000000000000000000000000000000000000000000000000000000000000000000000000000000000000000000000000000000000000000000000000000000000000000000000000000000000000000000000000000000000000000000000000000000000000000000000000000000000000000000000000000000000000000000000000000000000000000000000000000000000000000000000000000000000000000000000000000000000000000000000000000000000000000000000000000000000000000000000000000000000000000000000000000000000000000000000000000000000000000000000000000000000000000000000000000000000000000000000000000000000000000000000000000000000000000000000000000000000000000000000000000000000000000000000000000000000000000000000000000000000000000000000000000000000000000000000000000000000000000000000000000000000000000000000000000000000000000000000000000000000000000000000000000000000000000000000000000000000000000000000000000000000000000000000000000000000000000000000000000000000000000000000000000000000000000000000000000000000000000000000000000000000000000000000000000000000000000000000000000000000000000000000000000000000000000000000000000000000000000000000000000000000000000000000000000000000000000000000000000000000000000000000000000000000000000000000000000000000000000000000000000000000000000000000000000000000000000000000000000000000000000000000000000000000000000000000000000000000000000000000000000000000000000000000000000000000000000000000000000000000000000000000000000000000000000000000000000000000000000000000000000000000000000000000000000000000000000000000000000000000000000000000000000000000000000000000000000000000000000000000000000000000000000000000000000000000000000000000000000000000000000000000000000000000000000000000000000000000000000000000000000000000000000000000000000000000000000000000000000000000000000000000000000000000000000000000000000000000000000000000000000000000000000000000000000000000000000000000000000000000000000000000000000000000000000000000000000000000000000000000000000000000000000000000000000000000000000000000000000000000000000000000000000000000000000000000000000000000000000000000000000000000000000000000000000000000000000000000000000000000000000000000000000000000000000000000000000000000000000000000000000000000000000000000000000000000000000000000000000000000000000000000000000000000000000000000000000000000000000000000000000000000000000000000000000000000000000000000000000000000000000000000000000000000000000000000000000000000000000000000000000000000000000000000000000000000000000000000000000000000000000000000000000000000000000000000000000000000000000000000000000000000000000000000000000000000000000000000000000000000000000000000000000000000000000000056a0341b09306cf7c540350e05b6288254027364f3b68877f985021fb3cf692b14ffa001e0a5f7f4c3303d753e787b8f46dd04ad6bd7dd33c16480cab7e4205e83fdd7`
    );
  });

  it('Test Sign Typed Data Transaction', async () => {
    const client: EIP712TypedDataTransaction = {
      typedData: TYPED_DATA_FIXTURE_0(CHAIN.CRONOS.id),
      transport,
      appPrivateKey: props.appPrivateKey,
      appId: props.appId,
      addressIndex: 0,
    };

    const signature = await coinCronos.signTypedData(client);
    expect(signature).toEqual(
      `0xd04c0884e7a19d58a66cc4415d50713467a8ae74baf98154840a00fa8793673f09abebfd9d8c1e2a2b4b88f8dbb2e7c9cc33a2de50d595354199ca8a28c06f1b`
    );
  });

  it('Test Sign Message Transaction', async () => {
    const client: EIP712MessageTransaction = {
      message: `0x4920776f756c64206c696b6520746f2075706461746520707265666572656e6365732e20557365726e616d65206973204342583636362c207069637475726520697320697066733a2f2f697066732f516d56676b3578337136476233484a7136556f444d517053475542535839753462345a4268794e733959463766522c2073686f72742075726c206973206e756c6c2c20636f76657220697320697066733a2f2f697066732f516d5365575968544b4c5056624d6e7171627269474e38567756654362534175736f694d385739645833596f644b2c206465736372697074696f6e206973202768656c6c6f20776f726c647e0a0a272c20656d6f6a69206973206e756c6c2c206a6f62206973206e756c6c2c20656d706c6f796572206973206e756c6c2c2077656273697465206973206e756c6c2c206c6f636174696f6e206973206e756c6c2c2072656365697665456d61696c4e6f74696669636174696f6e732069732074727565`,
      transport,
      appPrivateKey: props.appPrivateKey,
      appId: props.appId,
      addressIndex: 0,
    };

    const siganture = await coinCronos.signMessage(client);
    expect(siganture).toEqual(
      `0x623db1eb6fa18e63c1b977ee96e0a672b1f9f3909d24e0fdc624768fa722b82c1da3f74900a93aa09d0a26e4d9935aaff9e3a9ab18d9cafc39e21664c652b68e1b`
    );
  });

  it('Test Sign EIP1559 Transaction', async () => {
    const client: EIP1559Transaction = {
      transaction: {
        nonce: '0x0',
        gasFeeCap: '0x91494C600',
        gasTipCap: '0x91494C600',
        gasLimit: '0x5208',
        to: '0x8A1628c2397F6cA75579A45E81EE3e17DF19720e',
        value: utils.toHex(utils.toWei('0.00001', 'ether')),
        data: '',
      },
      transport,
      appPrivateKey: props.appPrivateKey,
      appId: props.appId,
      addressIndex: 0,
    };

    const signature = await coinCronos.signEIP1559Transaction(client);
    expect(signature).toEqual(
      `0x02f872198085091494c60085091494c600825208948a1628c2397f6ca75579a45e81ee3e17df19720e8609184e72a00080c080a02f4cc8e519f18c7a5bdbfbdb09cc6b49364dca9cc6140dd17e406460076910d7a069b055ed2ebfd387f97f992bb5272846a59733734fb842bf70b1130ef73e52d4`
    );
  });

  it('Test Sign EIP1559 ERC20 Transaction', async () => {
    const token = CHAIN.CRONOS.tokens.USDT;
    const scale = 10 ** +token.unit;
    const tokenAmount = 0.00001;
    const amount = (tokenAmount * scale).toString(16);
    const erc20Data = `0xa9059cbb${token.contractAddress.slice(2).padStart(64, '0')}${amount.padStart(64, '0')}`;
    const client: EIP1559Transaction = {
      transaction: {
        nonce: '0x0',
        gasFeeCap: '0x91494C600',
        gasTipCap: '0x91494C600',
        gasLimit: '0x5208',
        to: token.contractAddress,
        value: '0x0',
        data: erc20Data,
      },
      transport,
      appPrivateKey: props.appPrivateKey,
      appId: props.appId,
      addressIndex: 0,
    };

    const signature = await coinCronos.signEIP1559Transaction(client);
    expect(signature).toEqual(
      `0x02f8b1198085091494c60085091494c6008252089466e428c3f67a68878562e79a0234c1f83c20877080b844a9059cbb00000000000000000000000066e428c3f67a68878562e79a0234c1f83c208770000000000000000000000000000000000000000000000000000000000000000ac080a09a1ad9763267cfeb3ebc5ada031224926735133f582309557c435f088bedce87a01b6e19ccf40fcbe39ebe1c2c2b8bb1fb643c8ed2c2a15038c27d0aa8efe21e33`
    );
  });

  it('Test Sign EIP1559 Smart Contract Transaction', async () => {
    const client: EIP1559Transaction = {
      transaction: {
        nonce: '0x0',
        gasFeeCap: '0x91494C600',
        gasTipCap: '0x91494C600',
        gasLimit: '0x5208',
        to: '0x8A1628c2397F6cA75579A45E81EE3e17DF19720e',
        value: utils.toHex(utils.toWei('0.00001', 'ether')),
        data: '0x96Cd30C0C545f2656Ba40b00E0263A934532fa25',
      },
      transport,
      appPrivateKey: props.appPrivateKey,
      appId: props.appId,
      addressIndex: 0,
    };

    const signature = await coinCronos.signEIP1559SmartContractTransaction(client);
    expect(signature).toEqual(
      `0x02f886198085091494c60085091494c600825208948a1628c2397f6ca75579a45e81ee3e17df19720e8609184e72a0009496cd30c0c545f2656ba40b00e0263a934532fa25c080a0ab8ce63a512938d74ed2420eab82ed79f3c606562401c619be0179d4ef363e80a06cf3e6e32a287be15a5b94c2271f318d136ea8a82a9e44819085a004476c512d`
    );
  });

  it('Test Sign EIP1559 Smart Contract Segment Transaction', async () => {
    const client: EIP1559Transaction = {
      transaction: {
        nonce: '0x0',
        gasFeeCap: '0x91494C600',
        gasTipCap: '0x91494C600',
        gasLimit: '0x5208',
        to: '0x8A1628c2397F6cA75579A45E81EE3e17DF19720e',
        value: utils.toHex(utils.toWei('0.00001', 'ether')),
        data: '0x96Cd30C0C545f2656Ba40b00E0263A934532fa25'.padEnd(16000, '0'),
      },
      transport,
      appPrivateKey: props.appPrivateKey,
      appId: props.appId,
      addressIndex: 0,
    };

    const signature = await coinCronos.signEIP1559SmartContractTransaction(client);
    expect(signature).toEqual(
      `0x02f91fb3198085091494c60085091494c600825208948a1628c2397f6ca75579a45e81ee3e17df19720e8609184e72a000b91f3f96cd30c0c545f2656ba40b00e0263a934532fa250000000000000000000000000000000000000000000000000000000000000000000000000000000000000000000000000000000000000000000000000000000000000000000000000000000000000000000000000000000000000000000000000000000000000000000000000000000000000000000000000000000000000000000000000000000000000000000000000000000000000000000000000000000000000000000000000000000000000000000000000000000000000000000000000000000000000000000000000000000000000000000000000000000000000000000000000000000000000000000000000000000000000000000000000000000000000000000000000000000000000000000000000000000000000000000000000000000000000000000000000000000000000000000000000000000000000000000000000000000000000000000000000000000000000000000000000000000000000000000000000000000000000000000000000000000000000000000000000000000000000000000000000000000000000000000000000000000000000000000000000000000000000000000000000000000000000000000000000000000000000000000000000000000000000000000000000000000000000000000000000000000000000000000000000000000000000000000000000000000000000000000000000000000000000000000000000000000000000000000000000000000000000000000000000000000000000000000000000000000000000000000000000000000000000000000000000000000000000000000000000000000000000000000000000000000000000000000000000000000000000000000000000000000000000000000000000000000000000000000000000000000000000000000000000000000000000000000000000000000000000000000000000000000000000000000000000000000000000000000000000000000000000000000000000000000000000000000000000000000000000000000000000000000000000000000000000000000000000000000000000000000000000000000000000000000000000000000000000000000000000000000000000000000000000000000000000000000000000000000000000000000000000000000000000000000000000000000000000000000000000000000000000000000000000000000000000000000000000000000000000000000000000000000000000000000000000000000000000000000000000000000000000000000000000000000000000000000000000000000000000000000000000000000000000000000000000000000000000000000000000000000000000000000000000000000000000000000000000000000000000000000000000000000000000000000000000000000000000000000000000000000000000000000000000000000000000000000000000000000000000000000000000000000000000000000000000000000000000000000000000000000000000000000000000000000000000000000000000000000000000000000000000000000000000000000000000000000000000000000000000000000000000000000000000000000000000000000000000000000000000000000000000000000000000000000000000000000000000000000000000000000000000000000000000000000000000000000000000000000000000000000000000000000000000000000000000000000000000000000000000000000000000000000000000000000000000000000000000000000000000000000000000000000000000000000000000000000000000000000000000000000000000000000000000000000000000000000000000000000000000000000000000000000000000000000000000000000000000000000000000000000000000000000000000000000000000000000000000000000000000000000000000000000000000000000000000000000000000000000000000000000000000000000000000000000000000000000000000000000000000000000000000000000000000000000000000000000000000000000000000000000000000000000000000000000000000000000000000000000000000000000000000000000000000000000000000000000000000000000000000000000000000000000000000000000000000000000000000000000000000000000000000000000000000000000000000000000000000000000000000000000000000000000000000000000000000000000000000000000000000000000000000000000000000000000000000000000000000000000000000000000000000000000000000000000000000000000000000000000000000000000000000000000000000000000000000000000000000000000000000000000000000000000000000000000000000000000000000000000000000000000000000000000000000000000000000000000000000000000000000000000000000000000000000000000000000000000000000000000000000000000000000000000000000000000000000000000000000000000000000000000000000000000000000000000000000000000000000000000000000000000000000000000000000000000000000000000000000000000000000000000000000000000000000000000000000000000000000000000000000000000000000000000000000000000000000000000000000000000000000000000000000000000000000000000000000000000000000000000000000000000000000000000000000000000000000000000000000000000000000000000000000000000000000000000000000000000000000000000000000000000000000000000000000000000000000000000000000000000000000000000000000000000000000000000000000000000000000000000000000000000000000000000000000000000000000000000000000000000000000000000000000000000000000000000000000000000000000000000000000000000000000000000000000000000000000000000000000000000000000000000000000000000000000000000000000000000000000000000000000000000000000000000000000000000000000000000000000000000000000000000000000000000000000000000000000000000000000000000000000000000000000000000000000000000000000000000000000000000000000000000000000000000000000000000000000000000000000000000000000000000000000000000000000000000000000000000000000000000000000000000000000000000000000000000000000000000000000000000000000000000000000000000000000000000000000000000000000000000000000000000000000000000000000000000000000000000000000000000000000000000000000000000000000000000000000000000000000000000000000000000000000000000000000000000000000000000000000000000000000000000000000000000000000000000000000000000000000000000000000000000000000000000000000000000000000000000000000000000000000000000000000000000000000000000000000000000000000000000000000000000000000000000000000000000000000000000000000000000000000000000000000000000000000000000000000000000000000000000000000000000000000000000000000000000000000000000000000000000000000000000000000000000000000000000000000000000000000000000000000000000000000000000000000000000000000000000000000000000000000000000000000000000000000000000000000000000000000000000000000000000000000000000000000000000000000000000000000000000000000000000000000000000000000000000000000000000000000000000000000000000000000000000000000000000000000000000000000000000000000000000000000000000000000000000000000000000000000000000000000000000000000000000000000000000000000000000000000000000000000000000000000000000000000000000000000000000000000000000000000000000000000000000000000000000000000000000000000000000000000000000000000000000000000000000000000000000000000000000000000000000000000000000000000000000000000000000000000000000000000000000000000000000000000000000000000000000000000000000000000000000000000000000000000000000000000000000000000000000000000000000000000000000000000000000000000000000000000000000000000000000000000000000000000000000000000000000000000000000000000000000000000000000000000000000000000000000000000000000000000000000000000000000000000000000000000000000000000000000000000000000000000000000000000000000000000000000000000000000000000000000000000000000000000000000000000000000000000000000000000000000000000000000000000000000000000000000000000000000000000000000000000000000000000000000000000000000000000000000000000000000000000000000000000000000000000000000000000000000000000000000000000000000000000000000000000000000000000000000000000000000000000000000000000000000000000000000000000000000000000000000000000000000000000000000000000000000000000000000000000000000000000000000000000000000000000000000000000000000000000000000000000000000000000000000000000000000000000000000000000000000000000000000000000000000000000000000000000000000000000000000000000000000000000000000000000000000000000000000000000000000000000000000000000000000000000000000000000000000000000000000000000000000000000000000000000000000000000000000000000000000000000000000000000000000000000000000000000000000000000000000000000000000000000000000000000000000000000000000000000000000000000000000000000000000000000000000000000000000000000000000000000000000000000000000000000000000000000000000000000000000000000000000000000000000000000000000000000000000000000000000000000000000000000000000000000000000000000000000000000000000000000000000000000000000000000000000000000000000000000000000000000000000000000000000000000000000000000000000000000000000000000000000000000000000000000000000000000000000000000000000000000000000000000000000000000000000000000000000000000000000000000000000000000000000000000000000000000000000000000000000000000000000000000000000000000000000000000000000000000000000000000000000000000000000000000000000000000000000000000000000000000000000000000000000000000000000000000000000000000000000000000000000000000000000000000000000000000000000000000000000000000000000000000000000000000000000000000000000000000000000000000000000000000000000000000000000000000000000000000000000000000000000000000000000000000000000000000000000000000000000000000000000000000000000000000000000000000000000000000000000000000000000000000000000000000000000000000000000000000000000000000000000000000000000000000000000000000000000000000000000000000000000000000000000000000000000000000000000000000000000000000000000000000000000000000000000000000000000000000000000000000000000000000000000000000000000000000000000000000000000000000000000000000000000000000000000000000000000000000000000000000000000000000000000000000000000000000000000000000000000000000000000000000000000000000000000000000000000000000000000000000000000000000000000000000000000000000000000000000000000000000000000000000000000000000000000000000000000000000000000000000000000000000000000000000000000000000000000000000000000000000000000000000000000000000000000000000000000000000000000000000000000000000000000000000000000000000000000000000000000000000000000000000000000000000000000000000000000000000000000000000000000000000000000000000000000000000000000000000000000000000000000000000000000000000000000000000000000000000000000000000000000000000000000000000000000000000000000000000000000000000000000000000000000000000000000000000000000000000000000000000000000000000000000000000000000000000000000000000000000000000000000000000000000000000000000000000000000000000000000000000000000000000000000000000000000000000000000000000000000000000000000000000000000000000000000000000000000000000000000000000000000000000000000000000000000000000000000000000000000000000000000000000000000000000000000000000000000000000000000000000000000000000000000000000000000000000000000000000000000000000000000000000000000000000000000000000000000000000000000000000000000000000000000000000000000000000000000000000000000000000000000000000000000000000000000000000000000000000000000000000000000000000000000000000000000000000000000000000000000000000000000000000000000000000000000000000000000000000000000000000000000000000000000000000000000000000000000000000000000000000000000000000000000000000000000000000000000000000000000000000000000000000000000000000000000000000000000000000000000000000000000000000000000000000000000000000000000000000000000000000000000000000000000000000000000000000000000000000000000000000000000000000000000000000000000000000000000000000000000000000000000000000000000000000000000000000000000000000000000000000000000000000000000000000000000000000000000000000000000000000000000000000000000000000000000000000000000000000000000000000000000000000000000000000000000000000000000000000000000000000000000000000000000000000000000000000000000000000000000000000000000000000000000000000000000000000000000000000000000000000000000000000000000000000000000000000000000000000000000000000000000000000000000000000000000000000000000000000000000000000000000000000000000000000000000000000000000000000000000000000000000000000000000000000000000000000000000000000000000000000000000000000000000000000000000000000000000000000000000000000000000000000000000000000000000000000000000000000000000000000000000000000000000000000000000000000000000000000000000000000000000000000000000000000000000000000000000000000000000000000000000000000000000000000000000000000000000000000000000000000000000000000000000000000000000000000000000000000000000000000000000000000000000000000000000000000000000000000000000000000000000000000000000000000000000000000000000000000000000000000000000000000000000000000000000000000000000000000000000000000000000000000000000000000000000000000000000000000000000000000000000000000000000000000000000000000000000000000000000000000000000000000000000000000000000000000000000000000000000000000000000000000000000000000000000000000000000000000000000000000000000000000000000000000000000000000000000000000000000000000000000000000000000000000000000000000000000000000000000000000000000000000000000000000000000000000000000000000000000000000000000000000000000000000000000000000000000000000000000000000000000000000000000000000000000000000000000000000000000000000000000000000000000000000000000000000000000000000000000000000000000000000000000000000000000000000000000000000000000000000000000000000000000000000000000000000000000000000000000000000000000000000000000000000000000000000000000000000000000000000000000000000000000000000000000000000000000000000000000000000000000000000000000000000000000000000000000000000000000000000000000000000000000000000000000000000000000000000000000000000000000000000000000000000000000000000000000000000000000000000000000000000000000000000000000000000000000000000000000000000000000000000000000000000000000000000000000000000000000000000000000000000000000000000000000000000000000000000000000000000000000000000000000000000000000000000000000000000000000000000000000000000000000000000000000000000000000000000000000000000000000000000000000000000000000000000000000000000000000000000000000000000000000000000000000000000000000000000000000000000000000000000000000000000000000000000000000000000000000000000000000000000000000000000000000000000000000000000000000000000000000000000000000000000000000000000000000000000000000000000000000000000000000000000000000000000000000000000000000000000000000000000000000000000000000000000000000000000000000000000000000000000000000000000000000000000000000000000000000000000000000000000000000000000000000000000000000000000000000000000000000000000000000000000000000000000000000000000000000000000000000000000000000000000000000000000000000000000000000000000000000000000000000000000000000000000000000000000000000000000000000000000000000000000000000000000000000000000000000000000000000000000000000000000000000000000000000000000000000000000000000000000000000000000000000000000000000000000000000000000000000000000000000000000000000000000000000000000000000000000000000000000000000000000000000000000000000000000000000000000000000000000000000000000000000000000000000000000000000000000000000000000000000000000000000000000000000000000000000000000000000000000000000000000000000000000000000000000000000000000000000000000000000000000000000000000000000000000000000000000000000000000000000000000000000000000000000000000000000000000000000000000000000000000000000000000000000000000000000000000000000000000000000000000000000000000000000000000000000000000000000000000000000000000000000000000000000000000000000000000000000000000000000000000000000000000000000000000000000000000000000000000000000000000000000000000000000000000000000000000000000000000000000000000000000000000000000000000000000000000000000000000000000000000000000000000000000000000000000000000000000000000000000000000000000000000000000000000000000000000000000000000000000000000000000000000000000000000000000000000000000000000000000000000000000000000000000000000000000000000000000000000000000000000000000000000000000000000000000000000000000000000000000000000000000000000000000000000000000000000000000000000000000000000000000000000000000000000000000000000000000000000000000000000000000000000000000000000000000000000000000000000000000000000000000000000000000000000000000000000000000000000000000000000000000000000000000000000000000000000000000000000000000000000000000000000000000000000000000000000000000000000000000000000000000000000000000000000000000000000000000000000000000000000000000000000000000000000000000000000000000000000000000000000000000000000000000000000000000000000000000000000000000000000000000000000000000000000000000000000000000000000000000000000000000000000000000000000000000000000000000000000000000000000000000000000000000000000000000000000000000000000000000000000000000000000000000000c080a0697a8afb0a8e3f639b0d18eab437bbafb7986b10999028ada8e65c8ae42c67d5a0338574d29b2076f3400c92f77f4a405f763b05d078a5a6cc4c9e2e53479531d4`
    );
  });
});
